{
  "contractName": "LiquidityPool",
  "abi": [
    {
      "inputs": [
        {
          "internalType": "uint256",
          "name": "_totalLiquidity",
          "type": "uint256"
        },
        {
          "internalType": "uint256",
          "name": "_rewardRate",
          "type": "uint256"
        },
        {
          "internalType": "uint256",
          "name": "_colleteralFactor",
          "type": "uint256"
        }
      ],
      "stateMutability": "nonpayable",
      "type": "constructor"
    },
    {
      "inputs": [
        {
          "internalType": "address",
          "name": "spender",
          "type": "address"
        },
        {
          "internalType": "uint256",
          "name": "allowance",
          "type": "uint256"
        },
        {
          "internalType": "uint256",
          "name": "needed",
          "type": "uint256"
        }
      ],
      "name": "ERC20InsufficientAllowance",
      "type": "error"
    },
    {
      "inputs": [
        {
          "internalType": "address",
          "name": "sender",
          "type": "address"
        },
        {
          "internalType": "uint256",
          "name": "balance",
          "type": "uint256"
        },
        {
          "internalType": "uint256",
          "name": "needed",
          "type": "uint256"
        }
      ],
      "name": "ERC20InsufficientBalance",
      "type": "error"
    },
    {
      "inputs": [
        {
          "internalType": "address",
          "name": "approver",
          "type": "address"
        }
      ],
      "name": "ERC20InvalidApprover",
      "type": "error"
    },
    {
      "inputs": [
        {
          "internalType": "address",
          "name": "receiver",
          "type": "address"
        }
      ],
      "name": "ERC20InvalidReceiver",
      "type": "error"
    },
    {
      "inputs": [
        {
          "internalType": "address",
          "name": "sender",
          "type": "address"
        }
      ],
      "name": "ERC20InvalidSender",
      "type": "error"
    },
    {
      "inputs": [
        {
          "internalType": "address",
          "name": "spender",
          "type": "address"
        }
      ],
      "name": "ERC20InvalidSpender",
      "type": "error"
    },
    {
      "anonymous": false,
      "inputs": [
        {
          "indexed": true,
          "internalType": "address",
          "name": "owner",
          "type": "address"
        },
        {
          "indexed": true,
          "internalType": "address",
          "name": "spender",
          "type": "address"
        },
        {
          "indexed": false,
          "internalType": "uint256",
          "name": "value",
          "type": "uint256"
        }
      ],
      "name": "Approval",
      "type": "event"
    },
    {
      "anonymous": false,
      "inputs": [
        {
          "indexed": true,
          "internalType": "address",
          "name": "user",
          "type": "address"
        },
        {
          "indexed": false,
          "internalType": "uint256",
          "name": "amount",
          "type": "uint256"
        }
      ],
      "name": "Borrow",
      "type": "event"
    },
    {
      "anonymous": false,
      "inputs": [
        {
          "indexed": true,
          "internalType": "address",
          "name": "user",
          "type": "address"
        },
        {
          "indexed": false,
          "internalType": "uint256",
          "name": "amount",
          "type": "uint256"
        }
      ],
      "name": "Deposit",
      "type": "event"
    },
    {
      "anonymous": false,
      "inputs": [
        {
          "indexed": true,
          "internalType": "address",
          "name": "user",
          "type": "address"
        },
        {
          "indexed": false,
          "internalType": "uint256",
          "name": "colleteralSeized",
          "type": "uint256"
        }
      ],
      "name": "Liquidate",
      "type": "event"
    },
    {
      "anonymous": false,
      "inputs": [
        {
          "indexed": true,
          "internalType": "address",
          "name": "user",
          "type": "address"
        },
        {
          "indexed": false,
          "internalType": "uint256",
          "name": "amount",
          "type": "uint256"
        }
      ],
      "name": "Repay",
      "type": "event"
    },
    {
      "anonymous": false,
      "inputs": [
        {
          "indexed": true,
          "internalType": "address",
          "name": "user",
          "type": "address"
        },
        {
          "indexed": false,
          "internalType": "uint256",
          "name": "reward",
          "type": "uint256"
        }
      ],
      "name": "RewardClaimed",
      "type": "event"
    },
    {
      "anonymous": false,
      "inputs": [
        {
          "indexed": true,
          "internalType": "address",
          "name": "from",
          "type": "address"
        },
        {
          "indexed": true,
          "internalType": "address",
          "name": "to",
          "type": "address"
        },
        {
          "indexed": false,
          "internalType": "uint256",
          "name": "value",
          "type": "uint256"
        }
      ],
      "name": "Transfer",
      "type": "event"
    },
    {
      "anonymous": false,
      "inputs": [
        {
          "indexed": true,
          "internalType": "address",
          "name": "user",
          "type": "address"
        },
        {
          "indexed": false,
          "internalType": "uint256",
          "name": "amount",
          "type": "uint256"
        }
      ],
      "name": "Withdraw",
      "type": "event"
    },
    {
      "inputs": [
        {
          "internalType": "address",
          "name": "owner",
          "type": "address"
        },
        {
          "internalType": "address",
          "name": "spender",
          "type": "address"
        }
      ],
      "name": "allowance",
      "outputs": [
        {
          "internalType": "uint256",
          "name": "",
          "type": "uint256"
        }
      ],
      "stateMutability": "view",
      "type": "function"
    },
    {
      "inputs": [
        {
          "internalType": "address",
          "name": "spender",
          "type": "address"
        },
        {
          "internalType": "uint256",
          "name": "value",
          "type": "uint256"
        }
      ],
      "name": "approve",
      "outputs": [
        {
          "internalType": "bool",
          "name": "",
          "type": "bool"
        }
      ],
      "stateMutability": "nonpayable",
      "type": "function"
    },
    {
      "inputs": [
        {
          "internalType": "address",
          "name": "account",
          "type": "address"
        }
      ],
      "name": "balanceOf",
      "outputs": [
        {
          "internalType": "uint256",
          "name": "",
          "type": "uint256"
        }
      ],
      "stateMutability": "view",
      "type": "function"
    },
    {
      "inputs": [
        {
          "internalType": "address",
          "name": "",
          "type": "address"
        }
      ],
      "name": "balances",
      "outputs": [
        {
          "internalType": "uint256",
          "name": "",
          "type": "uint256"
        }
      ],
      "stateMutability": "view",
      "type": "function"
    },
    {
      "inputs": [
        {
          "internalType": "address",
          "name": "",
          "type": "address"
        }
      ],
      "name": "borrowedAmount",
      "outputs": [
        {
          "internalType": "uint256",
          "name": "",
          "type": "uint256"
        }
      ],
      "stateMutability": "view",
      "type": "function"
    },
    {
      "inputs": [],
      "name": "colleteralFactor",
      "outputs": [
        {
          "internalType": "uint256",
          "name": "",
          "type": "uint256"
        }
      ],
      "stateMutability": "view",
      "type": "function"
    },
    {
      "inputs": [],
      "name": "decimals",
      "outputs": [
        {
          "internalType": "uint8",
          "name": "",
          "type": "uint8"
        }
      ],
      "stateMutability": "view",
      "type": "function"
    },
    {
      "inputs": [],
      "name": "name",
      "outputs": [
        {
          "internalType": "string",
          "name": "",
          "type": "string"
        }
      ],
      "stateMutability": "view",
      "type": "function"
    },
    {
      "inputs": [],
      "name": "owner",
      "outputs": [
        {
          "internalType": "address",
          "name": "",
          "type": "address"
        }
      ],
      "stateMutability": "view",
      "type": "function"
    },
    {
      "inputs": [],
      "name": "rewardRate",
      "outputs": [
        {
          "internalType": "uint256",
          "name": "",
          "type": "uint256"
        }
      ],
      "stateMutability": "view",
      "type": "function"
    },
    {
      "inputs": [
        {
          "internalType": "address",
          "name": "",
          "type": "address"
        }
      ],
      "name": "rewards",
      "outputs": [
        {
          "internalType": "uint256",
          "name": "",
          "type": "uint256"
        }
      ],
      "stateMutability": "view",
      "type": "function"
    },
    {
      "inputs": [],
      "name": "symbol",
      "outputs": [
        {
          "internalType": "string",
          "name": "",
          "type": "string"
        }
      ],
      "stateMutability": "view",
      "type": "function"
    },
    {
      "inputs": [],
      "name": "totalLiquidity",
      "outputs": [
        {
          "internalType": "uint256",
          "name": "",
          "type": "uint256"
        }
      ],
      "stateMutability": "view",
      "type": "function"
    },
    {
      "inputs": [],
      "name": "totalSupply",
      "outputs": [
        {
          "internalType": "uint256",
          "name": "",
          "type": "uint256"
        }
      ],
      "stateMutability": "view",
      "type": "function"
    },
    {
      "inputs": [
        {
          "internalType": "address",
          "name": "to",
          "type": "address"
        },
        {
          "internalType": "uint256",
          "name": "value",
          "type": "uint256"
        }
      ],
      "name": "transfer",
      "outputs": [
        {
          "internalType": "bool",
          "name": "",
          "type": "bool"
        }
      ],
      "stateMutability": "nonpayable",
      "type": "function"
    },
    {
      "inputs": [
        {
          "internalType": "address",
          "name": "from",
          "type": "address"
        },
        {
          "internalType": "address",
          "name": "to",
          "type": "address"
        },
        {
          "internalType": "uint256",
          "name": "value",
          "type": "uint256"
        }
      ],
      "name": "transferFrom",
      "outputs": [
        {
          "internalType": "bool",
          "name": "",
          "type": "bool"
        }
      ],
      "stateMutability": "nonpayable",
      "type": "function"
    },
    {
      "inputs": [
        {
          "internalType": "uint256",
          "name": "amount",
          "type": "uint256"
        }
      ],
      "name": "deposit",
      "outputs": [],
      "stateMutability": "nonpayable",
      "type": "function"
    },
    {
      "inputs": [
        {
          "internalType": "uint256",
          "name": "amount",
          "type": "uint256"
        }
      ],
      "name": "withdraw",
      "outputs": [],
      "stateMutability": "nonpayable",
      "type": "function"
    },
    {
      "inputs": [
        {
          "internalType": "uint256",
          "name": "amount",
          "type": "uint256"
        }
      ],
      "name": "borrow",
      "outputs": [],
      "stateMutability": "nonpayable",
      "type": "function"
    },
    {
      "inputs": [
        {
          "internalType": "uint256",
          "name": "amount",
          "type": "uint256"
        }
      ],
      "name": "repay",
      "outputs": [],
      "stateMutability": "nonpayable",
      "type": "function"
    },
    {
      "inputs": [],
      "name": "claimReward",
      "outputs": [],
      "stateMutability": "nonpayable",
      "type": "function"
    },
    {
      "inputs": [
        {
          "internalType": "address",
          "name": "user",
          "type": "address"
        }
      ],
      "name": "liquidate",
      "outputs": [],
      "stateMutability": "nonpayable",
      "type": "function"
    }
  ],
  "bytecode": "0x60806040526001600a5534801562000015575f80fd5b5060405162002c2038038062002c2083398181016040528101906200003b919062000470565b6040518060400160405280600b81526020017f4d61676d6120546f6b656e0000000000000000000000000000000000000000008152506040518060400160405280600281526020017f4d540000000000000000000000000000000000000000000000000000000000008152508160039081620000b8919062000724565b508060049081620000ca919062000724565b505050606481111562000114576040517f08c379a00000000000000000000000000000000000000000000000000000000081526004016200010b9062000866565b60405180910390fd5b82600b8190555081600d8190555080600e8190555033600c5f6101000a81548173ffffffffffffffffffffffffffffffffffffffff021916908373ffffffffffffffffffffffffffffffffffffffff1602179055506200017d33600b546200018660201b60201c565b505050620009b2565b5f73ffffffffffffffffffffffffffffffffffffffff168273ffffffffffffffffffffffffffffffffffffffff1603620001f9575f6040517fec442f05000000000000000000000000000000000000000000000000000000008152600401620001f09190620008c9565b60405180910390fd5b6200020c5f83836200021060201b60201c565b5050565b5f73ffffffffffffffffffffffffffffffffffffffff168373ffffffffffffffffffffffffffffffffffffffff160362000264578060025f82825462000257919062000911565b9250508190555062000335565b5f805f8573ffffffffffffffffffffffffffffffffffffffff1673ffffffffffffffffffffffffffffffffffffffff1681526020019081526020015f2054905081811015620002f0578381836040517fe450d38c000000000000000000000000000000000000000000000000000000008152600401620002e7939291906200095c565b60405180910390fd5b8181035f808673ffffffffffffffffffffffffffffffffffffffff1673ffffffffffffffffffffffffffffffffffffffff1681526020019081526020015f2081905550505b5f73ffffffffffffffffffffffffffffffffffffffff168273ffffffffffffffffffffffffffffffffffffffff16036200037e578060025f8282540392505081905550620003c8565b805f808473ffffffffffffffffffffffffffffffffffffffff1673ffffffffffffffffffffffffffffffffffffffff1681526020019081526020015f205f82825401925050819055505b8173ffffffffffffffffffffffffffffffffffffffff168373ffffffffffffffffffffffffffffffffffffffff167fddf252ad1be2c89b69c2b068fc378daa952ba7f163c4a11628f55a4df523b3ef8360405162000427919062000997565b60405180910390a3505050565b5f80fd5b5f819050919050565b6200044c8162000438565b811462000457575f80fd5b50565b5f815190506200046a8162000441565b92915050565b5f805f606084860312156200048a576200048962000434565b5b5f62000499868287016200045a565b9350506020620004ac868287016200045a565b9250506040620004bf868287016200045a565b9150509250925092565b5f81519050919050565b7f4e487b71000000000000000000000000000000000000000000000000000000005f52604160045260245ffd5b7f4e487b71000000000000000000000000000000000000000000000000000000005f52602260045260245ffd5b5f60028204905060018216806200054557607f821691505b6020821081036200055b576200055a62000500565b5b50919050565b5f819050815f5260205f209050919050565b5f6020601f8301049050919050565b5f82821b905092915050565b5f60088302620005bf7fffffffffffffffffffffffffffffffffffffffffffffffffffffffffffffffff8262000582565b620005cb868362000582565b95508019841693508086168417925050509392505050565b5f819050919050565b5f6200060c62000606620006008462000438565b620005e3565b62000438565b9050919050565b5f819050919050565b6200062783620005ec565b6200063f620006368262000613565b8484546200058e565b825550505050565b5f90565b6200065562000647565b620006628184846200061c565b505050565b5b8181101562000689576200067d5f826200064b565b60018101905062000668565b5050565b601f821115620006d857620006a28162000561565b620006ad8462000573565b81016020851015620006bd578190505b620006d5620006cc8562000573565b83018262000667565b50505b505050565b5f82821c905092915050565b5f620006fa5f1984600802620006dd565b1980831691505092915050565b5f620007148383620006e9565b9150826002028217905092915050565b6200072f82620004c9565b67ffffffffffffffff8111156200074b576200074a620004d3565b5b6200075782546200052d565b620007648282856200068d565b5f60209050601f8311600181146200079a575f841562000785578287015190505b62000791858262000707565b86555062000800565b601f198416620007aa8662000561565b5f5b82811015620007d357848901518255600182019150602085019450602081019050620007ac565b86831015620007f35784890151620007ef601f891682620006e9565b8355505b6001600288020188555050505b505050505050565b5f82825260208201905092915050565b7f6e756d6265722068617320746f20626520617070726f707269617465000000005f82015250565b5f6200084e601c8362000808565b91506200085b8262000818565b602082019050919050565b5f6020820190508181035f8301526200087f8162000840565b9050919050565b5f73ffffffffffffffffffffffffffffffffffffffff82169050919050565b5f620008b18262000886565b9050919050565b620008c381620008a5565b82525050565b5f602082019050620008de5f830184620008b8565b92915050565b7f4e487b71000000000000000000000000000000000000000000000000000000005f52601160045260245ffd5b5f6200091d8262000438565b91506200092a8362000438565b9250828201905080821115620009455762000944620008e4565b5b92915050565b620009568162000438565b82525050565b5f606082019050620009715f830186620008b8565b6200098060208301856200094b565b6200098f60408301846200094b565b949350505050565b5f602082019050620009ac5f8301846200094b565b92915050565b61226080620009c05f395ff3fe608060405234801561000f575f80fd5b5060043610610140575f3560e01c806370a08231116100b6578063a0c09c011161007a578063a0c09c011461038a578063a9059cbb146103a8578063b6b55f25146103d8578063b88a802f146103f4578063c5ebeaec146103fe578063dd62ed3e1461041a57610140565b806370a08231146102d05780637b0a47ee146103005780638da5cb5b1461031e578063948adb8f1461033c57806395d89b411461036c57610140565b806323b872dd1161010857806323b872dd146101fe57806327e235e31461022e5780632e1a7d4d1461025e5780632f8655681461027a578063313ce56714610296578063371fd8e6146102b457610140565b806306fdde03146101445780630700037d14610162578063095ea7b31461019257806315770f92146101c257806318160ddd146101e0575b5f80fd5b61014c61044a565b60405161015991906119e9565b60405180910390f35b61017c60048036038101906101779190611a67565b6104da565b6040516101899190611aaa565b60405180910390f35b6101ac60048036038101906101a79190611aed565b6104ef565b6040516101b99190611b45565b60405180910390f35b6101ca610511565b6040516101d79190611aaa565b60405180910390f35b6101e8610517565b6040516101f59190611aaa565b60405180910390f35b61021860048036038101906102139190611b5e565b610520565b6040516102259190611b45565b60405180910390f35b61024860048036038101906102439190611a67565b61054e565b6040516102559190611aaa565b60405180910390f35b61027860048036038101906102739190611bae565b610563565b005b610294600480360381019061028f9190611a67565b610732565b005b61029e6109e2565b6040516102ab9190611bf4565b60405180910390f35b6102ce60048036038101906102c99190611bae565b6109ea565b005b6102ea60048036038101906102e59190611a67565b610b3a565b6040516102f79190611aaa565b60405180910390f35b610308610b7f565b6040516103159190611aaa565b60405180910390f35b610326610b85565b6040516103339190611c1c565b60405180910390f35b61035660048036038101906103519190611a67565b610baa565b6040516103639190611aaa565b60405180910390f35b610374610bbf565b60405161038191906119e9565b60405180910390f35b610392610c4f565b60405161039f9190611aaa565b60405180910390f35b6103c260048036038101906103bd9190611aed565b610c55565b6040516103cf9190611b45565b60405180910390f35b6103f260048036038101906103ed9190611bae565b610c77565b005b6103fc610d89565b005b61041860048036038101906104139190611bae565b610f86565b005b610434600480360381019061042f9190611c35565b611144565b6040516104419190611aaa565b60405180910390f35b60606003805461045990611ca0565b80601f016020809104026020016040519081016040528092919081815260200182805461048590611ca0565b80156104d05780601f106104a7576101008083540402835291602001916104d0565b820191905f5260205f20905b8154815290600101906020018083116104b357829003601f168201915b5050505050905090565b6006602052805f5260405f205f915090505481565b5f806104f96111c6565b90506105068185856111cd565b600191505092915050565b600b5481565b5f600254905090565b5f8061052a6111c6565b90506105378582856111df565b610542858585611271565b60019150509392505050565b6005602052805f5260405f205f915090505481565b8060055f3373ffffffffffffffffffffffffffffffffffffffff1673ffffffffffffffffffffffffffffffffffffffff1681526020019081526020015f205410156105e3576040517f08c379a00000000000000000000000000000000000000000000000000000000081526004016105da90611d1a565b60405180910390fd5b5f60075f3373ffffffffffffffffffffffffffffffffffffffff1673ffffffffffffffffffffffffffffffffffffffff1681526020019081526020015f205414610662576040517f08c379a000000000000000000000000000000000000000000000000000000000815260040161065990611d1a565b60405180910390fd5b61066b33611361565b8060055f3373ffffffffffffffffffffffffffffffffffffffff1673ffffffffffffffffffffffffffffffffffffffff1681526020019081526020015f205f8282546106b79190611d65565b9250508190555080600b5f8282546106cf9190611d65565b925050819055506106e1303383611271565b3373ffffffffffffffffffffffffffffffffffffffff167f884edad9ce6fa2440d8a54cc123490eb96d2768479d49ff9c7366125a9424364826040516107279190611aaa565b60405180910390a250565b600c5f9054906101000a900473ffffffffffffffffffffffffffffffffffffffff1673ffffffffffffffffffffffffffffffffffffffff163373ffffffffffffffffffffffffffffffffffffffff16146107c1576040517f08c379a00000000000000000000000000000000000000000000000000000000081526004016107b890611de2565b60405180910390fd5b5f60055f8373ffffffffffffffffffffffffffffffffffffffff1673ffffffffffffffffffffffffffffffffffffffff1681526020019081526020015f205490505f60075f8473ffffffffffffffffffffffffffffffffffffffff1673ffffffffffffffffffffffffffffffffffffffff1681526020019081526020015f20549050818111610885576040517f08c379a000000000000000000000000000000000000000000000000000000000815260040161087c90611e4a565b60405180910390fd5b5f60055f8573ffffffffffffffffffffffffffffffffffffffff1673ffffffffffffffffffffffffffffffffffffffff1681526020019081526020015f205490505f60055f8673ffffffffffffffffffffffffffffffffffffffff1673ffffffffffffffffffffffffffffffffffffffff1681526020019081526020015f20819055505f60075f8673ffffffffffffffffffffffffffffffffffffffff1673ffffffffffffffffffffffffffffffffffffffff1681526020019081526020015f208190555080600b5f82825461095b9190611e68565b9250508190555061098e30600c5f9054906101000a900473ffffffffffffffffffffffffffffffffffffffff1683611271565b8373ffffffffffffffffffffffffffffffffffffffff167f08813a3631e12129135cc9440d3fea50eec346f1673b20b994b0456d5d46ccb9826040516109d49190611aaa565b60405180910390a250505050565b5f6012905090565b8060075f3373ffffffffffffffffffffffffffffffffffffffff1673ffffffffffffffffffffffffffffffffffffffff1681526020019081526020015f20541015610a6a576040517f08c379a0000000000000000000000000000000000000000000000000000000008152600401610a6190611f0b565b60405180910390fd5b610a7333611361565b8060075f3373ffffffffffffffffffffffffffffffffffffffff1673ffffffffffffffffffffffffffffffffffffffff1681526020019081526020015f205f828254610abf9190611d65565b9250508190555080600b5f828254610ad79190611e68565b92505081905550610ae9333083611271565b3373ffffffffffffffffffffffffffffffffffffffff167f5c16de4f8b59bd9caf0f49a545f25819a895ed223294290b408242e72a59423182604051610b2f9190611aaa565b60405180910390a250565b5f805f8373ffffffffffffffffffffffffffffffffffffffff1673ffffffffffffffffffffffffffffffffffffffff1681526020019081526020015f20549050919050565b600d5481565b600c5f9054906101000a900473ffffffffffffffffffffffffffffffffffffffff1681565b6007602052805f5260405f205f915090505481565b606060048054610bce90611ca0565b80601f0160208091040260200160405190810160405280929190818152602001828054610bfa90611ca0565b8015610c455780601f10610c1c57610100808354040283529160200191610c45565b820191905f5260205f20905b815481529060010190602001808311610c2857829003601f168201915b5050505050905090565b600e5481565b5f80610c5f6111c6565b9050610c6c818585611271565b600191505092915050565b5f8111610cb9576040517f08c379a0000000000000000000000000000000000000000000000000000000008152600401610cb090611f73565b60405180910390fd5b610cc233611361565b8060055f3373ffffffffffffffffffffffffffffffffffffffff1673ffffffffffffffffffffffffffffffffffffffff1681526020019081526020015f205f828254610d0e9190611e68565b9250508190555080600b5f828254610d269190611e68565b92505081905550610d38333083611271565b3373ffffffffffffffffffffffffffffffffffffffff167fe1fffcc4923d04b559f4d29a8bfc6cda04eb5b0d3c460751c2402c5c5cc9109c82604051610d7e9190611aaa565b60405180910390a250565b610d9233611361565b5f60095f3373ffffffffffffffffffffffffffffffffffffffff1673ffffffffffffffffffffffffffffffffffffffff1681526020019081526020015f205442610ddc9190611d65565b9050600a54811015610e23576040517f08c379a0000000000000000000000000000000000000000000000000000000008152600401610e1a90611fdb565b60405180910390fd5b5f60065f3373ffffffffffffffffffffffffffffffffffffffff1673ffffffffffffffffffffffffffffffffffffffff1681526020019081526020015f205490505f8111610ea6576040517f08c379a0000000000000000000000000000000000000000000000000000000008152600401610e9d90612043565b60405180910390fd5b5f60065f3373ffffffffffffffffffffffffffffffffffffffff1673ffffffffffffffffffffffffffffffffffffffff1681526020019081526020015f20819055504260095f3373ffffffffffffffffffffffffffffffffffffffff1673ffffffffffffffffffffffffffffffffffffffff1681526020019081526020015f2081905550610f3433826114f8565b3373ffffffffffffffffffffffffffffffffffffffff167f106f923f993c2149d49b4255ff723acafa1f2d94393f561d3eda32ae348f724182604051610f7a9190611aaa565b60405180910390a25050565b5f6064600e5460055f3373ffffffffffffffffffffffffffffffffffffffff1673ffffffffffffffffffffffffffffffffffffffff1681526020019081526020015f2054610fd49190612061565b610fde91906120cf565b90505f82118015610fef5750808211155b61102e576040517f08c379a000000000000000000000000000000000000000000000000000000000815260040161102590612149565b60405180910390fd5b600b54821115611073576040517f08c379a000000000000000000000000000000000000000000000000000000000815260040161106a906121d7565b60405180910390fd5b61107c33611361565b8160075f3373ffffffffffffffffffffffffffffffffffffffff1673ffffffffffffffffffffffffffffffffffffffff1681526020019081526020015f205f8282546110c89190611e68565b9250508190555081600b5f8282546110e09190611d65565b925050819055506110f2303384611271565b3373ffffffffffffffffffffffffffffffffffffffff167fcbc04eca7e9da35cb1393a6135a199ca52e450d5e9251cbd99f7847d33a36750836040516111389190611aaa565b60405180910390a25050565b5f60015f8473ffffffffffffffffffffffffffffffffffffffff1673ffffffffffffffffffffffffffffffffffffffff1681526020019081526020015f205f8373ffffffffffffffffffffffffffffffffffffffff1673ffffffffffffffffffffffffffffffffffffffff1681526020019081526020015f2054905092915050565b5f33905090565b6111da8383836001611577565b505050565b5f6111ea8484611144565b90507fffffffffffffffffffffffffffffffffffffffffffffffffffffffffffffffff811461126b578181101561125c578281836040517ffb8f41b2000000000000000000000000000000000000000000000000000000008152600401611253939291906121f5565b60405180910390fd5b61126a84848484035f611577565b5b50505050565b5f73ffffffffffffffffffffffffffffffffffffffff168373ffffffffffffffffffffffffffffffffffffffff16036112e1575f6040517f96c6fd1e0000000000000000000000000000000000000000000000000000000081526004016112d89190611c1c565b60405180910390fd5b5f73ffffffffffffffffffffffffffffffffffffffff168273ffffffffffffffffffffffffffffffffffffffff1603611351575f6040517fec442f050000000000000000000000000000000000000000000000000000000081526004016113489190611c1c565b60405180910390fd5b61135c838383611746565b505050565b5f60085f8373ffffffffffffffffffffffffffffffffffffffff1673ffffffffffffffffffffffffffffffffffffffff1681526020019081526020015f2054426113ab9190611d65565b90505f811180156113f857505f60055f8473ffffffffffffffffffffffffffffffffffffffff1673ffffffffffffffffffffffffffffffffffffffff1681526020019081526020015f2054115b156114b257600181600d5460055f8673ffffffffffffffffffffffffffffffffffffffff1673ffffffffffffffffffffffffffffffffffffffff1681526020019081526020015f205461144b9190612061565b6114559190612061565b61145f91906120cf565b60065f8473ffffffffffffffffffffffffffffffffffffffff1673ffffffffffffffffffffffffffffffffffffffff1681526020019081526020015f205f8282546114aa9190611e68565b925050819055505b4260085f8473ffffffffffffffffffffffffffffffffffffffff1673ffffffffffffffffffffffffffffffffffffffff1681526020019081526020015f20819055505050565b5f73ffffffffffffffffffffffffffffffffffffffff168273ffffffffffffffffffffffffffffffffffffffff1603611568575f6040517fec442f0500000000000000000000000000000000000000000000000000000000815260040161155f9190611c1c565b60405180910390fd5b6115735f8383611746565b5050565b5f73ffffffffffffffffffffffffffffffffffffffff168473ffffffffffffffffffffffffffffffffffffffff16036115e7575f6040517fe602df050000000000000000000000000000000000000000000000000000000081526004016115de9190611c1c565b60405180910390fd5b5f73ffffffffffffffffffffffffffffffffffffffff168373ffffffffffffffffffffffffffffffffffffffff1603611657575f6040517f94280d6200000000000000000000000000000000000000000000000000000000815260040161164e9190611c1c565b60405180910390fd5b8160015f8673ffffffffffffffffffffffffffffffffffffffff1673ffffffffffffffffffffffffffffffffffffffff1681526020019081526020015f205f8573ffffffffffffffffffffffffffffffffffffffff1673ffffffffffffffffffffffffffffffffffffffff1681526020019081526020015f20819055508015611740578273ffffffffffffffffffffffffffffffffffffffff168473ffffffffffffffffffffffffffffffffffffffff167f8c5be1e5ebec7d5bd14f71427d1e84f3dd0314c0f7b2291e5b200ac8c7c3b925846040516117379190611aaa565b60405180910390a35b50505050565b5f73ffffffffffffffffffffffffffffffffffffffff168373ffffffffffffffffffffffffffffffffffffffff1603611796578060025f82825461178a9190611e68565b92505081905550611864565b5f805f8573ffffffffffffffffffffffffffffffffffffffff1673ffffffffffffffffffffffffffffffffffffffff1681526020019081526020015f205490508181101561181f578381836040517fe450d38c000000000000000000000000000000000000000000000000000000008152600401611816939291906121f5565b60405180910390fd5b8181035f808673ffffffffffffffffffffffffffffffffffffffff1673ffffffffffffffffffffffffffffffffffffffff1681526020019081526020015f2081905550505b5f73ffffffffffffffffffffffffffffffffffffffff168273ffffffffffffffffffffffffffffffffffffffff16036118ab578060025f82825403925050819055506118f5565b805f808473ffffffffffffffffffffffffffffffffffffffff1673ffffffffffffffffffffffffffffffffffffffff1681526020019081526020015f205f82825401925050819055505b8173ffffffffffffffffffffffffffffffffffffffff168373ffffffffffffffffffffffffffffffffffffffff167fddf252ad1be2c89b69c2b068fc378daa952ba7f163c4a11628f55a4df523b3ef836040516119529190611aaa565b60405180910390a3505050565b5f81519050919050565b5f82825260208201905092915050565b5f5b8381101561199657808201518184015260208101905061197b565b5f8484015250505050565b5f601f19601f8301169050919050565b5f6119bb8261195f565b6119c58185611969565b93506119d5818560208601611979565b6119de816119a1565b840191505092915050565b5f6020820190508181035f830152611a0181846119b1565b905092915050565b5f80fd5b5f73ffffffffffffffffffffffffffffffffffffffff82169050919050565b5f611a3682611a0d565b9050919050565b611a4681611a2c565b8114611a50575f80fd5b50565b5f81359050611a6181611a3d565b92915050565b5f60208284031215611a7c57611a7b611a09565b5b5f611a8984828501611a53565b91505092915050565b5f819050919050565b611aa481611a92565b82525050565b5f602082019050611abd5f830184611a9b565b92915050565b611acc81611a92565b8114611ad6575f80fd5b50565b5f81359050611ae781611ac3565b92915050565b5f8060408385031215611b0357611b02611a09565b5b5f611b1085828601611a53565b9250506020611b2185828601611ad9565b9150509250929050565b5f8115159050919050565b611b3f81611b2b565b82525050565b5f602082019050611b585f830184611b36565b92915050565b5f805f60608486031215611b7557611b74611a09565b5b5f611b8286828701611a53565b9350506020611b9386828701611a53565b9250506040611ba486828701611ad9565b9150509250925092565b5f60208284031215611bc357611bc2611a09565b5b5f611bd084828501611ad9565b91505092915050565b5f60ff82169050919050565b611bee81611bd9565b82525050565b5f602082019050611c075f830184611be5565b92915050565b611c1681611a2c565b82525050565b5f602082019050611c2f5f830184611c0d565b92915050565b5f8060408385031215611c4b57611c4a611a09565b5b5f611c5885828601611a53565b9250506020611c6985828601611a53565b9150509250929050565b7f4e487b71000000000000000000000000000000000000000000000000000000005f52602260045260245ffd5b5f6002820490506001821680611cb757607f821691505b602082108103611cca57611cc9611c73565b5b50919050565b7f616d6f756e74206d75737420626520617070726f7072696174650000000000005f82015250565b5f611d04601a83611969565b9150611d0f82611cd0565b602082019050919050565b5f6020820190508181035f830152611d3181611cf8565b9050919050565b7f4e487b71000000000000000000000000000000000000000000000000000000005f52601160045260245ffd5b5f611d6f82611a92565b9150611d7a83611a92565b9250828203905081811115611d9257611d91611d38565b5b92915050565b7f6f6e6c79206f776e6572206861732061636365737300000000000000000000005f82015250565b5f611dcc601583611969565b9150611dd782611d98565b602082019050919050565b5f6020820190508181035f830152611df981611dc0565b9050919050565b7f43616e6e6f74206c6971756964617465000000000000000000000000000000005f82015250565b5f611e34601083611969565b9150611e3f82611e00565b602082019050919050565b5f6020820190508181035f830152611e6181611e28565b9050919050565b5f611e7282611a92565b9150611e7d83611a92565b9250828201905080821115611e9557611e94611d38565b5b92915050565b7f526570617920616d6f756e74206578636565647320626f72726f77656420616d5f8201527f6f756e7400000000000000000000000000000000000000000000000000000000602082015250565b5f611ef5602483611969565b9150611f0082611e9b565b604082019050919050565b5f6020820190508181035f830152611f2281611ee9565b9050919050565b7f616d6f756e74206d7573742062652067726561746572207468616e20300000005f82015250565b5f611f5d601d83611969565b9150611f6882611f29565b602082019050919050565b5f6020820190508181035f830152611f8a81611f51565b9050919050565b7f5265776172647320617265206c6f636b656420666f722036206d6f6e746873005f82015250565b5f611fc5601f83611969565b9150611fd082611f91565b602082019050919050565b5f6020820190508181035f830152611ff281611fb9565b9050919050565b7f4e6f2072657761726420746f20636c61696d00000000000000000000000000005f82015250565b5f61202d601283611969565b915061203882611ff9565b602082019050919050565b5f6020820190508181035f83015261205a81612021565b9050919050565b5f61206b82611a92565b915061207683611a92565b925082820261208481611a92565b9150828204841483151761209b5761209a611d38565b5b5092915050565b7f4e487b71000000000000000000000000000000000000000000000000000000005f52601260045260245ffd5b5f6120d982611a92565b91506120e483611a92565b9250826120f4576120f36120a2565b5b828204905092915050565b7f496e76616c696420626f72726f7720616d6f756e7400000000000000000000005f82015250565b5f612133601583611969565b915061213e826120ff565b602082019050919050565b5f6020820190508181035f83015261216081612127565b9050919050565b7f616d6f756e74206d757374206265206c657373207468616e206f7220657175615f8201527f6c20746f20746f74616c206c6971756964697479000000000000000000000000602082015250565b5f6121c1603483611969565b91506121cc82612167565b604082019050919050565b5f6020820190508181035f8301526121ee816121b5565b9050919050565b5f6060820190506122085f830186611c0d565b6122156020830185611a9b565b6122226040830184611a9b565b94935050505056fea26469706673582212208b70191edb518aabed6642078b74944474b80393d0b76263bbe5a6d02796c43564736f6c63430008150033",
  "immutableReferences": {},
  "source": "// SPDX-License-Identifier: MIT\r\npragma solidity ^0.8.0;\r\n\r\nimport \"@openzeppelin/contracts/token/ERC20/ERC20.sol\";\r\n\r\n\r\ncontract LiquidityPool is ERC20 {\r\n    mapping(address=>uint) public balances;\r\n    mapping(address=>uint) public rewards;\r\n    mapping(address=>uint) public borrowedAmount;\r\n    mapping(address=>uint) private lastRewardUpdate;\r\n    mapping(address=>uint) private lastRewardClaim;\r\n\r\n    \r\n     uint lockPeriod= 1 seconds;\r\n    uint public totalLiquidity;\r\n    address public owner;\r\n    uint public rewardRate;\r\n    uint public colleteralFactor;\r\n   \r\n\r\n    event Deposit(address indexed user, uint amount);\r\n    event Withdraw(address indexed user, uint amount);\r\n    event Borrow(address indexed user, uint amount);\r\n    event Repay(address indexed user, uint amount);\r\n    event RewardClaimed(address indexed user, uint reward);\r\n    event Liquidate(address indexed user, uint colleteralSeized);\r\n\r\n    constructor(uint _totalLiquidity, uint _rewardRate, uint _colleteralFactor) ERC20(\"Magma Token\", \"MT\"){\r\n       require(_colleteralFactor <= 100, \"number has to be appropriate\");\r\n       totalLiquidity = _totalLiquidity;\r\n       rewardRate = _rewardRate;\r\n       colleteralFactor = _colleteralFactor;\r\n      \r\n       owner = msg.sender;\r\n       _mint(msg.sender, totalLiquidity);\r\n    }\r\n\r\n\r\n    modifier onlyOwner() {\r\n        require(msg.sender==owner, \"only owner has access\");\r\n        _;\r\n    }\r\n\r\n    function deposit(uint amount) public {\r\n        require(amount>0, \"amount must be greater than 0\");\r\n        updateReward(msg.sender);\r\n        balances[msg.sender] += amount;\r\n        totalLiquidity += amount;\r\n        _transfer(msg.sender, address(this), amount);\r\n        emit Deposit(msg.sender, amount);\r\n    }\r\n\r\n\r\n    function withdraw(uint amount) public  {\r\n        require(balances[msg.sender] >= amount, \"amount must be appropriate\");\r\n        require(borrowedAmount[msg.sender] == 0, \"amount must be appropriate\");\r\n        updateReward(msg.sender);\r\n        balances[msg.sender] -= amount;\r\n        totalLiquidity -= amount;\r\n        _transfer(address(this), msg.sender, amount);\r\n         emit Withdraw(msg.sender, amount);\r\n\r\n    }\r\n\r\n\r\n    function borrow(uint amount) public  {\r\n        uint maxBorrow = (balances[msg.sender] * colleteralFactor)/100;\r\n        require(amount > 0 && amount<= maxBorrow, \"Invalid borrow amount\");\r\n        require(amount<= totalLiquidity, \"amount must be less than or equal to total liquidity\");\r\n        updateReward(msg.sender);\r\n        borrowedAmount[msg.sender] += amount;\r\n        totalLiquidity -= amount;\r\n        _transfer(address(this), msg.sender, amount);\r\n        emit Borrow(msg.sender, amount);\r\n\r\n        \r\n\r\n\r\n    }\r\n\r\n    function repay(uint amount) public  {\r\n        require(borrowedAmount[msg.sender] >= amount, \"Repay amount exceeds borrowed amount\");\r\n        updateReward(msg.sender);\r\n        borrowedAmount[msg.sender] -= amount;\r\n        totalLiquidity += amount;\r\n        _transfer(msg.sender, address(this), amount);\r\n        emit Repay(msg.sender, amount);\r\n\r\n\r\n    }\r\n\r\n    function updateReward(address account) internal  {\r\n       uint elapsedTime = block.timestamp - lastRewardUpdate[account];\r\n       if (elapsedTime>0 && balances[account] > 0) {\r\n        rewards[account] += (balances[account] * rewardRate * elapsedTime)/1 seconds;\r\n       }\r\n       lastRewardUpdate[account] = block.timestamp;\r\n\r\n    }\r\n\r\n        function claimReward() public  {\r\n             updateReward(msg.sender);\r\n\r\n        uint timeSinceLastClaim = block.timestamp - lastRewardClaim[msg.sender];\r\n        require(timeSinceLastClaim >= lockPeriod, \"Rewards are locked for 6 months\");\r\n\r\n        uint reward = rewards[msg.sender];\r\n        require(reward > 0, \"No reward to claim\");\r\n\r\n        rewards[msg.sender] = 0;\r\n        lastRewardClaim[msg.sender] = block.timestamp; \r\n        _mint(msg.sender, reward);\r\n\r\n        emit RewardClaimed(msg.sender, reward);\r\n            \r\n        \r\n\r\n    }\r\n\r\n        function liquidate(address user) public onlyOwner  {\r\n            uint colleteralValue = balances[user];\r\n            uint borrowValue = borrowedAmount[user];\r\n        require(borrowValue > colleteralValue, \"Cannot liquidate\");\r\n        uint collateralSeized = balances[user];\r\n        balances[user] = 0;\r\n        borrowedAmount[user] = 0;\r\n        totalLiquidity += collateralSeized;\r\n        _transfer(address(this), owner, collateralSeized);\r\n\r\n        emit Liquidate(user, collateralSeized);\r\n        }\r\n\r\n\r\n}",
  "sourcePath": "C:\\Users\\dsoha\\kk\\LiquidityPoolProject\\contracts\\liquidityPool.sol",
  "compiler": {
    "name": "solc",
    "version": "0.8.21+commit.d9974bed.Emscripten.clang"
  },
  "schemaVersion": "3.4.16",
  "updatedAt": "2024-08-15T09:01:30.625Z",
  "devdoc": {
    "errors": {
      "ERC20InsufficientAllowance(address,uint256,uint256)": [
        {
          "details": "Indicates a failure with the `spender`s `allowance`. Used in transfers.",
          "params": {
            "allowance": "Amount of tokens a `spender` is allowed to operate with.",
            "needed": "Minimum amount required to perform a transfer.",
            "spender": "Address that may be allowed to operate on tokens without being their owner."
          }
        }
      ],
      "ERC20InsufficientBalance(address,uint256,uint256)": [
        {
          "details": "Indicates an error related to the current `balance` of a `sender`. Used in transfers.",
          "params": {
            "balance": "Current balance for the interacting account.",
            "needed": "Minimum amount required to perform a transfer.",
            "sender": "Address whose tokens are being transferred."
          }
        }
      ],
      "ERC20InvalidApprover(address)": [
        {
          "details": "Indicates a failure with the `approver` of a token to be approved. Used in approvals.",
          "params": {
            "approver": "Address initiating an approval operation."
          }
        }
      ],
      "ERC20InvalidReceiver(address)": [
        {
          "details": "Indicates a failure with the token `receiver`. Used in transfers.",
          "params": {
            "receiver": "Address to which tokens are being transferred."
          }
        }
      ],
      "ERC20InvalidSender(address)": [
        {
          "details": "Indicates a failure with the token `sender`. Used in transfers.",
          "params": {
            "sender": "Address whose tokens are being transferred."
          }
        }
      ],
      "ERC20InvalidSpender(address)": [
        {
          "details": "Indicates a failure with the `spender` to be approved. Used in approvals.",
          "params": {
            "spender": "Address that may be allowed to operate on tokens without being their owner."
          }
        }
      ]
    },
    "events": {
      "Approval(address,address,uint256)": {
        "details": "Emitted when the allowance of a `spender` for an `owner` is set by a call to {approve}. `value` is the new allowance."
      },
      "Transfer(address,address,uint256)": {
        "details": "Emitted when `value` tokens are moved from one account (`from`) to another (`to`). Note that `value` may be zero."
      }
    },
    "kind": "dev",
    "methods": {
      "allowance(address,address)": {
        "details": "See {IERC20-allowance}."
      },
      "approve(address,uint256)": {
        "details": "See {IERC20-approve}. NOTE: If `value` is the maximum `uint256`, the allowance is not updated on `transferFrom`. This is semantically equivalent to an infinite approval. Requirements: - `spender` cannot be the zero address."
      },
      "balanceOf(address)": {
        "details": "See {IERC20-balanceOf}."
      },
      "decimals()": {
        "details": "Returns the number of decimals used to get its user representation. For example, if `decimals` equals `2`, a balance of `505` tokens should be displayed to a user as `5.05` (`505 / 10 ** 2`). Tokens usually opt for a value of 18, imitating the relationship between Ether and Wei. This is the default value returned by this function, unless it's overridden. NOTE: This information is only used for _display_ purposes: it in no way affects any of the arithmetic of the contract, including {IERC20-balanceOf} and {IERC20-transfer}."
      },
      "name()": {
        "details": "Returns the name of the token."
      },
      "symbol()": {
        "details": "Returns the symbol of the token, usually a shorter version of the name."
      },
      "totalSupply()": {
        "details": "See {IERC20-totalSupply}."
      },
      "transfer(address,uint256)": {
        "details": "See {IERC20-transfer}. Requirements: - `to` cannot be the zero address. - the caller must have a balance of at least `value`."
      },
      "transferFrom(address,address,uint256)": {
        "details": "See {IERC20-transferFrom}. Emits an {Approval} event indicating the updated allowance. This is not required by the EIP. See the note at the beginning of {ERC20}. NOTE: Does not update the allowance if the current allowance is the maximum `uint256`. Requirements: - `from` and `to` cannot be the zero address. - `from` must have a balance of at least `value`. - the caller must have allowance for ``from``'s tokens of at least `value`."
      }
    },
    "version": 1
  },
  "userdoc": {
    "kind": "user",
    "methods": {},
    "version": 1
  }
}